{
  "_format": "hh-sol-artifact-1",
  "contractName": "GroupNFT",
  "sourceName": "contracts/GroupNFT.sol",
  "abi": [
    {
      "inputs": [],
      "stateMutability": "nonpayable",
      "type": "constructor"
    },
    {
      "anonymous": false,
      "inputs": [
        {
          "indexed": true,
          "internalType": "address",
          "name": "owner",
          "type": "address"
        },
        {
          "indexed": true,
          "internalType": "address",
          "name": "approved",
          "type": "address"
        },
        {
          "indexed": true,
          "internalType": "uint256",
          "name": "tokenId",
          "type": "uint256"
        }
      ],
      "name": "Approval",
      "type": "event"
    },
    {
      "anonymous": false,
      "inputs": [
        {
          "indexed": true,
          "internalType": "address",
          "name": "owner",
          "type": "address"
        },
        {
          "indexed": true,
          "internalType": "address",
          "name": "operator",
          "type": "address"
        },
        {
          "indexed": false,
          "internalType": "bool",
          "name": "approved",
          "type": "bool"
        }
      ],
      "name": "ApprovalForAll",
      "type": "event"
    },
    {
      "anonymous": false,
      "inputs": [
        {
          "indexed": false,
          "internalType": "address",
          "name": "sender",
          "type": "address"
        },
        {
          "indexed": false,
          "internalType": "uint256",
          "name": "tokenId",
          "type": "uint256"
        }
      ],
      "name": "NewGroupNFTMinted",
      "type": "event"
    },
    {
      "anonymous": false,
      "inputs": [
        {
          "indexed": true,
          "internalType": "address",
          "name": "from",
          "type": "address"
        },
        {
          "indexed": true,
          "internalType": "address",
          "name": "to",
          "type": "address"
        },
        {
          "indexed": true,
          "internalType": "uint256",
          "name": "tokenId",
          "type": "uint256"
        }
      ],
      "name": "Transfer",
      "type": "event"
    },
    {
      "inputs": [
        {
          "internalType": "address",
          "name": "to",
          "type": "address"
        },
        {
          "internalType": "uint256",
          "name": "tokenId",
          "type": "uint256"
        }
      ],
      "name": "approve",
      "outputs": [],
      "stateMutability": "nonpayable",
      "type": "function"
    },
    {
      "inputs": [
        {
          "internalType": "address",
          "name": "owner",
          "type": "address"
        }
      ],
      "name": "balanceOf",
      "outputs": [
        {
          "internalType": "uint256",
          "name": "",
          "type": "uint256"
        }
      ],
      "stateMutability": "view",
      "type": "function"
    },
    {
      "inputs": [
        {
          "internalType": "uint256",
          "name": "tokenId",
          "type": "uint256"
        }
      ],
      "name": "getApproved",
      "outputs": [
        {
          "internalType": "address",
          "name": "",
          "type": "address"
        }
      ],
      "stateMutability": "view",
      "type": "function"
    },
    {
      "inputs": [
        {
          "internalType": "uint256",
          "name": "tokenId",
          "type": "uint256"
        }
      ],
      "name": "getRandFirstWord",
      "outputs": [
        {
          "internalType": "string",
          "name": "",
          "type": "string"
        }
      ],
      "stateMutability": "view",
      "type": "function"
    },
    {
      "inputs": [
        {
          "internalType": "uint256",
          "name": "tokenId",
          "type": "uint256"
        }
      ],
      "name": "getRandSecondWord",
      "outputs": [
        {
          "internalType": "string",
          "name": "",
          "type": "string"
        }
      ],
      "stateMutability": "view",
      "type": "function"
    },
    {
      "inputs": [
        {
          "internalType": "uint256",
          "name": "tokenId",
          "type": "uint256"
        }
      ],
      "name": "getRandThirdWord",
      "outputs": [
        {
          "internalType": "string",
          "name": "",
          "type": "string"
        }
      ],
      "stateMutability": "view",
      "type": "function"
    },
    {
      "inputs": [
        {
          "internalType": "address",
          "name": "owner",
          "type": "address"
        },
        {
          "internalType": "address",
          "name": "operator",
          "type": "address"
        }
      ],
      "name": "isApprovedForAll",
      "outputs": [
        {
          "internalType": "bool",
          "name": "",
          "type": "bool"
        }
      ],
      "stateMutability": "view",
      "type": "function"
    },
    {
      "inputs": [],
      "name": "makeGroupNFTs",
      "outputs": [],
      "stateMutability": "nonpayable",
      "type": "function"
    },
    {
      "inputs": [],
      "name": "name",
      "outputs": [
        {
          "internalType": "string",
          "name": "",
          "type": "string"
        }
      ],
      "stateMutability": "view",
      "type": "function"
    },
    {
      "inputs": [
        {
          "internalType": "uint256",
          "name": "tokenId",
          "type": "uint256"
        }
      ],
      "name": "ownerOf",
      "outputs": [
        {
          "internalType": "address",
          "name": "",
          "type": "address"
        }
      ],
      "stateMutability": "view",
      "type": "function"
    },
    {
      "inputs": [
        {
          "internalType": "uint256",
          "name": "tokenId",
          "type": "uint256"
        }
      ],
      "name": "pickRandomColor",
      "outputs": [
        {
          "internalType": "string",
          "name": "",
          "type": "string"
        }
      ],
      "stateMutability": "view",
      "type": "function"
    },
    {
      "inputs": [
        {
          "internalType": "address",
          "name": "from",
          "type": "address"
        },
        {
          "internalType": "address",
          "name": "to",
          "type": "address"
        },
        {
          "internalType": "uint256",
          "name": "tokenId",
          "type": "uint256"
        }
      ],
      "name": "safeTransferFrom",
      "outputs": [],
      "stateMutability": "nonpayable",
      "type": "function"
    },
    {
      "inputs": [
        {
          "internalType": "address",
          "name": "from",
          "type": "address"
        },
        {
          "internalType": "address",
          "name": "to",
          "type": "address"
        },
        {
          "internalType": "uint256",
          "name": "tokenId",
          "type": "uint256"
        },
        {
          "internalType": "bytes",
          "name": "_data",
          "type": "bytes"
        }
      ],
      "name": "safeTransferFrom",
      "outputs": [],
      "stateMutability": "nonpayable",
      "type": "function"
    },
    {
      "inputs": [
        {
          "internalType": "address",
          "name": "operator",
          "type": "address"
        },
        {
          "internalType": "bool",
          "name": "approved",
          "type": "bool"
        }
      ],
      "name": "setApprovalForAll",
      "outputs": [],
      "stateMutability": "nonpayable",
      "type": "function"
    },
    {
      "inputs": [
        {
          "internalType": "bytes4",
          "name": "interfaceId",
          "type": "bytes4"
        }
      ],
      "name": "supportsInterface",
      "outputs": [
        {
          "internalType": "bool",
          "name": "",
          "type": "bool"
        }
      ],
      "stateMutability": "view",
      "type": "function"
    },
    {
      "inputs": [],
      "name": "symbol",
      "outputs": [
        {
          "internalType": "string",
          "name": "",
          "type": "string"
        }
      ],
      "stateMutability": "view",
      "type": "function"
    },
    {
      "inputs": [
        {
          "internalType": "uint256",
          "name": "tokenId",
          "type": "uint256"
        }
      ],
      "name": "tokenURI",
      "outputs": [
        {
          "internalType": "string",
          "name": "",
          "type": "string"
        }
      ],
      "stateMutability": "view",
      "type": "function"
    },
    {
      "inputs": [
        {
          "internalType": "address",
          "name": "from",
          "type": "address"
        },
        {
          "internalType": "address",
          "name": "to",
          "type": "address"
        },
        {
          "internalType": "uint256",
          "name": "tokenId",
          "type": "uint256"
        }
      ],
      "name": "transferFrom",
      "outputs": [],
      "stateMutability": "nonpayable",
      "type": "function"
    }
  ],
  "bytecode": "0x608060405260405180610160016040528061012f8152602001620045fd61012f913960089080519060200190620000389291906200087c565b506040518060800160405280605681526020016200472c60569139600990805190602001906200006a9291906200087c565b506040518060400160405280600d81526020017f3c2f746578743e3c2f7376673e00000000000000000000000000000000000000815250600a9080519060200190620000b89291906200087c565b506040518060c001604052806040518060400160405280600481526020017f466c69700000000000000000000000000000000000000000000000000000000081525081526020016040518060400160405280600581526020017f48696d626f00000000000000000000000000000000000000000000000000000081525081526020016040518060400160405280600981526020017f5a65726f2044617973000000000000000000000000000000000000000000000081525081526020016040518060400160405280600381526020017f437570000000000000000000000000000000000000000000000000000000000081525081526020016040518060400160405280600781526020017f56616363696e650000000000000000000000000000000000000000000000000081525081526020016040518060400160405280600481526020017f4d656f7700000000000000000000000000000000000000000000000000000000815250815250600b906006620002369291906200090d565b506040518060c001604052806040518060400160405280600581526020017f4a4f52545300000000000000000000000000000000000000000000000000000081525081526020016040518060400160405280600481526020017f4a45414e0000000000000000000000000000000000000000000000000000000081525081526020016040518060400160405280600981526020017f4d6172676172696e65000000000000000000000000000000000000000000000081525081526020016040518060400160405280600581526020017f537765657400000000000000000000000000000000000000000000000000000081525081526020016040518060400160405280600881526020017f4163636964656e7400000000000000000000000000000000000000000000000081525081526020016040518060400160405280600681526020017f436c6f7365740000000000000000000000000000000000000000000000000000815250815250600c906006620003b49291906200090d565b506040518060c001604052806040518060400160405280600481526020017f4f70656e0000000000000000000000000000000000000000000000000000000081525081526020016040518060400160405280600481526020017f446f6f720000000000000000000000000000000000000000000000000000000081525081526020016040518060400160405280600681526020017f506f7461746f000000000000000000000000000000000000000000000000000081525081526020016040518060400160405280600481526020017f48656c700000000000000000000000000000000000000000000000000000000081525081526020016040518060400160405280600781526020017f547261707065640000000000000000000000000000000000000000000000000081525081526020016040518060400160405280600881526020017f467269656e646c79000000000000000000000000000000000000000000000000815250815250600d906006620005329291906200090d565b506040518060c001604052806040518060400160405280600381526020017f726564000000000000000000000000000000000000000000000000000000000081525081526020016040518060400160405280600781526020017f233038433241380000000000000000000000000000000000000000000000000081525081526020016040518060400160405280600581526020017f626c61636b00000000000000000000000000000000000000000000000000000081525081526020016040518060400160405280600681526020017f79656c6c6f77000000000000000000000000000000000000000000000000000081525081526020016040518060400160405280600481526020017f626c75650000000000000000000000000000000000000000000000000000000081525081526020016040518060400160405280600581526020017f677265656e000000000000000000000000000000000000000000000000000000815250815250600e906006620006b09291906200090d565b50348015620006be57600080fd5b506040518060400160405280600981526020017f47726f75704e46543100000000000000000000000000000000000000000000008152506040518060400160405280600781526020017f49474f54434855000000000000000000000000000000000000000000000000008152508160009080519060200190620007439291906200087c565b5080600190805190602001906200075c9291906200087c565b505050620007aa6040518060400160405280601181526020017f637265617465642074686520746f6b656e000000000000000000000000000000815250620007b060201b6200124c1760201c565b62000b2e565b6200085081604051602401620007c7919062000a42565b6040516020818303038152906040527f41304fac000000000000000000000000000000000000000000000000000000007bffffffffffffffffffffffffffffffffffffffffffffffffffffffff19166020820180517bffffffffffffffffffffffffffffffffffffffffffffffffffffffff83818316178352505050506200085360201b60201c565b50565b60008151905060006a636f6e736f6c652e6c6f679050602083016000808483855afa5050505050565b8280546200088a9062000ab8565b90600052602060002090601f016020900481019282620008ae5760008555620008fa565b82601f10620008c957805160ff1916838001178555620008fa565b82800160010185558215620008fa579182015b82811115620008f9578251825591602001919060010190620008dc565b5b50905062000909919062000974565b5090565b82805482825590600052602060002090810192821562000961579160200282015b82811115620009605782518290805190602001906200094f9291906200087c565b50916020019190600101906200092e565b5b50905062000970919062000993565b5090565b5b808211156200098f57600081600090555060010162000975565b5090565b5b80821115620009b75760008181620009ad9190620009bb565b5060010162000994565b5090565b508054620009c99062000ab8565b6000825580601f10620009dd5750620009fe565b601f016020900490600052602060002090810190620009fd919062000974565b5b50565b600062000a0e8262000a66565b62000a1a818562000a71565b935062000a2c81856020860162000a82565b62000a378162000b1d565b840191505092915050565b6000602082019050818103600083015262000a5e818462000a01565b905092915050565b600081519050919050565b600082825260208201905092915050565b60005b8381101562000aa257808201518184015260208101905062000a85565b8381111562000ab2576000848401525b50505050565b6000600282049050600182168062000ad157607f821691505b6020821081141562000ae85762000ae762000aee565b5b50919050565b7f4e487b7100000000000000000000000000000000000000000000000000000000600052602260045260246000fd5b6000601f19601f8301169050919050565b613abf8062000b3e6000396000f3fe608060405234801561001057600080fd5b50600436106101165760003560e01c80636352211e116100a2578063a22cb46511610071578063a22cb46514610305578063b88d4fde14610321578063c87b56dd1461033d578063d2a958fa1461036d578063e985e9c51461039d57610116565b80636352211e1461025757806370a082311461028757806384fb8b37146102b757806395d89b41146102e757610116565b806323b872dd116100e957806323b872dd146101b55780632a4363a2146101d157806342842e0e14610201578063514dc8c61461021d57806355ae7c821461024d57610116565b806301ffc9a71461011b57806306fdde031461014b578063081812fc14610169578063095ea7b314610199575b600080fd5b6101356004803603810190610130919061264c565b6103cd565b6040516101429190613334565b60405180910390f35b6101536104af565b604051610160919061334f565b60405180910390f35b610183600480360381019061017e919061269e565b610541565b60405161019091906132a4565b60405180910390f35b6101b360048036038101906101ae9190612610565b6105c6565b005b6101cf60048036038101906101ca919061250a565b6106de565b005b6101eb60048036038101906101e6919061269e565b61073e565b6040516101f8919061334f565b60405180910390f35b61021b6004803603810190610216919061250a565b61085c565b005b6102376004803603810190610232919061269e565b61087c565b604051610244919061334f565b60405180910390f35b61025561099a565b005b610271600480360381019061026c919061269e565b610bb6565b60405161027e91906132a4565b60405180910390f35b6102a1600480360381019061029c91906124a5565b610c68565b6040516102ae91906135af565b60405180910390f35b6102d160048036038101906102cc919061269e565b610d20565b6040516102de919061334f565b60405180910390f35b6102ef610e3e565b6040516102fc919061334f565b60405180910390f35b61031f600480360381019061031a91906125d4565b610ed0565b005b61033b60048036038101906103369190612559565b610ee6565b005b6103576004803603810190610352919061269e565b610f48565b604051610364919061334f565b60405180910390f35b6103876004803603810190610382919061269e565b61109a565b604051610394919061334f565b60405180910390f35b6103b760048036038101906103b291906124ce565b6111b8565b6040516103c49190613334565b60405180910390f35b60007f80ac58cd000000000000000000000000000000000000000000000000000000007bffffffffffffffffffffffffffffffffffffffffffffffffffffffff1916827bffffffffffffffffffffffffffffffffffffffffffffffffffffffff1916148061049857507f5b5e139f000000000000000000000000000000000000000000000000000000007bffffffffffffffffffffffffffffffffffffffffffffffffffffffff1916827bffffffffffffffffffffffffffffffffffffffffffffffffffffffff1916145b806104a857506104a7826112e5565b5b9050919050565b6060600080546104be9061384e565b80601f01602080910402602001604051908101604052809291908181526020018280546104ea9061384e565b80156105375780601f1061050c57610100808354040283529160200191610537565b820191906000526020600020905b81548152906001019060200180831161051a57829003601f168201915b5050505050905090565b600061054c8261134f565b61058b576040517f08c379a00000000000000000000000000000000000000000000000000000000081526004016105829061350f565b60405180910390fd5b6004600083815260200190815260200160002060009054906101000a900473ffffffffffffffffffffffffffffffffffffffff169050919050565b60006105d182610bb6565b90508073ffffffffffffffffffffffffffffffffffffffff168373ffffffffffffffffffffffffffffffffffffffff161415610642576040517f08c379a00000000000000000000000000000000000000000000000000000000081526004016106399061356f565b60405180910390fd5b8073ffffffffffffffffffffffffffffffffffffffff166106616113bb565b73ffffffffffffffffffffffffffffffffffffffff161480610690575061068f8161068a6113bb565b6111b8565b5b6106cf576040517f08c379a00000000000000000000000000000000000000000000000000000000081526004016106c69061344f565b60405180910390fd5b6106d983836113c3565b505050565b6106ef6106e96113bb565b8261147c565b61072e576040517f08c379a00000000000000000000000000000000000000000000000000000000081526004016107259061358f565b60405180910390fd5b61073983838361155a565b505050565b6060600061077261074e846117b6565b60405160200161075e91906131b5565b604051602081830303815290604052611963565b9050600b805490508161078591906138c9565b9050600d81815481106107c1577f4e487b7100000000000000000000000000000000000000000000000000000000600052603260045260246000fd5b9060005260206000200180546107d69061384e565b80601f01602080910402602001604051908101604052809291908181526020018280546108029061384e565b801561084f5780601f106108245761010080835404028352916020019161084f565b820191906000526020600020905b81548152906001019060200180831161083257829003601f168201915b5050505050915050919050565b61087783838360405180602001604052806000815250610ee6565b505050565b606060006108b061088c846117b6565b60405160200161089c9190613282565b604051602081830303815290604052611963565b9050600e80549050816108c391906138c9565b9050600e81815481106108ff577f4e487b7100000000000000000000000000000000000000000000000000000000600052603260045260246000fd5b9060005260206000200180546109149061384e565b80601f01602080910402602001604051908101604052809291908181526020018280546109409061384e565b801561098d5780601f106109625761010080835404028352916020019161098d565b820191906000526020600020905b81548152906001019060200180831161097057829003601f168201915b5050505050915050919050565b60006109a66007611996565b905060006109b382610d20565b905060006109c08361109a565b905060006109cd8461073e565b905060008383836040516020016109e693929190613117565b60405160208183030381529060405290506000610a028661087c565b90506000600882600985600a604051602001610a22959493929190613148565b60405160208183030381529060405290506000610a6784610a42846119a4565b604051602001610a539291906131f9565b6040516020818303038152906040526119a4565b9050600081604051602001610a7c9190613260565b6040516020818303038152906040529050610acb6040518060400160405280601581526020017f0a2d2d2d2d2d2d2d2d2d2d2d2d2d2d2d2d2d2d2d2d000000000000000000000081525061124c565b610af381604051602001610adf9190613193565b60405160208183030381529060405261124c565b610b316040518060400160405280601581526020017f2d2d2d2d2d2d2d2d2d2d2d2d2d2d2d2d2d2d2d2d0a000000000000000000000081525061124c565b610b3b338a611b62565b610b458982611b80565b610b4f6007611bf4565b610b72604051806060016040528060268152602001613a64602691398a33611c0a565b7f695f39ae785441a18af3212e1636d7c95644c46ac752a54f2e7824a8d73396ba338a604051610ba392919061330b565b60405180910390a1505050505050505050565b6000806002600084815260200190815260200160002060009054906101000a900473ffffffffffffffffffffffffffffffffffffffff169050600073ffffffffffffffffffffffffffffffffffffffff168173ffffffffffffffffffffffffffffffffffffffff161415610c5f576040517f08c379a0000000000000000000000000000000000000000000000000000000008152600401610c569061348f565b60405180910390fd5b80915050919050565b60008073ffffffffffffffffffffffffffffffffffffffff168273ffffffffffffffffffffffffffffffffffffffff161415610cd9576040517f08c379a0000000000000000000000000000000000000000000000000000000008152600401610cd09061346f565b60405180910390fd5b600360008373ffffffffffffffffffffffffffffffffffffffff1673ffffffffffffffffffffffffffffffffffffffff168152602001908152602001600020549050919050565b60606000610d54610d30846117b6565b604051602001610d40919061323e565b604051602081830303815290604052611963565b9050600b8054905081610d6791906138c9565b9050600b8181548110610da3577f4e487b7100000000000000000000000000000000000000000000000000000000600052603260045260246000fd5b906000526020600020018054610db89061384e565b80601f0160208091040260200160405190810160405280929190818152602001828054610de49061384e565b8015610e315780601f10610e0657610100808354040283529160200191610e31565b820191906000526020600020905b815481529060010190602001808311610e1457829003601f168201915b5050505050915050919050565b606060018054610e4d9061384e565b80601f0160208091040260200160405190810160405280929190818152602001828054610e799061384e565b8015610ec65780601f10610e9b57610100808354040283529160200191610ec6565b820191906000526020600020905b815481529060010190602001808311610ea957829003601f168201915b5050505050905090565b610ee2610edb6113bb565b8383611ca9565b5050565b610ef7610ef16113bb565b8361147c565b610f36576040517f08c379a0000000000000000000000000000000000000000000000000000000008152600401610f2d9061358f565b60405180910390fd5b610f4284848484611e16565b50505050565b6060610f538261134f565b610f92576040517f08c379a0000000000000000000000000000000000000000000000000000000008152600401610f89906134ef565b60405180910390fd5b6000600660008481526020019081526020016000208054610fb29061384e565b80601f0160208091040260200160405190810160405280929190818152602001828054610fde9061384e565b801561102b5780601f106110005761010080835404028352916020019161102b565b820191906000526020600020905b81548152906001019060200180831161100e57829003601f168201915b50505050509050600061103c611e72565b9050600081511415611052578192505050611095565b60008251111561108757808260405160200161106f9291906130f3565b60405160208183030381529060405292505050611095565b61109084611e89565b925050505b919050565b606060006110ce6110aa846117b6565b6040516020016110ba91906131d7565b604051602081830303815290604052611963565b9050600b80549050816110e191906138c9565b9050600c818154811061111d577f4e487b7100000000000000000000000000000000000000000000000000000000600052603260045260246000fd5b9060005260206000200180546111329061384e565b80601f016020809104026020016040519081016040528092919081815260200182805461115e9061384e565b80156111ab5780601f10611180576101008083540402835291602001916111ab565b820191906000526020600020905b81548152906001019060200180831161118e57829003601f168201915b5050505050915050919050565b6000600560008473ffffffffffffffffffffffffffffffffffffffff1673ffffffffffffffffffffffffffffffffffffffff16815260200190815260200160002060008373ffffffffffffffffffffffffffffffffffffffff1673ffffffffffffffffffffffffffffffffffffffff16815260200190815260200160002060009054906101000a900460ff16905092915050565b6112e281604051602401611260919061334f565b6040516020818303038152906040527f41304fac000000000000000000000000000000000000000000000000000000007bffffffffffffffffffffffffffffffffffffffffffffffffffffffff19166020820180517bffffffffffffffffffffffffffffffffffffffffffffffffffffffff8381831617835250505050611f30565b50565b60007f01ffc9a7000000000000000000000000000000000000000000000000000000007bffffffffffffffffffffffffffffffffffffffffffffffffffffffff1916827bffffffffffffffffffffffffffffffffffffffffffffffffffffffff1916149050919050565b60008073ffffffffffffffffffffffffffffffffffffffff166002600084815260200190815260200160002060009054906101000a900473ffffffffffffffffffffffffffffffffffffffff1673ffffffffffffffffffffffffffffffffffffffff1614159050919050565b600033905090565b816004600083815260200190815260200160002060006101000a81548173ffffffffffffffffffffffffffffffffffffffff021916908373ffffffffffffffffffffffffffffffffffffffff160217905550808273ffffffffffffffffffffffffffffffffffffffff1661143683610bb6565b73ffffffffffffffffffffffffffffffffffffffff167f8c5be1e5ebec7d5bd14f71427d1e84f3dd0314c0f7b2291e5b200ac8c7c3b92560405160405180910390a45050565b60006114878261134f565b6114c6576040517f08c379a00000000000000000000000000000000000000000000000000000000081526004016114bd9061342f565b60405180910390fd5b60006114d183610bb6565b90508073ffffffffffffffffffffffffffffffffffffffff168473ffffffffffffffffffffffffffffffffffffffff16148061154057508373ffffffffffffffffffffffffffffffffffffffff1661152884610541565b73ffffffffffffffffffffffffffffffffffffffff16145b80611551575061155081856111b8565b5b91505092915050565b8273ffffffffffffffffffffffffffffffffffffffff1661157a82610bb6565b73ffffffffffffffffffffffffffffffffffffffff16146115d0576040517f08c379a00000000000000000000000000000000000000000000000000000000081526004016115c79061352f565b60405180910390fd5b600073ffffffffffffffffffffffffffffffffffffffff168273ffffffffffffffffffffffffffffffffffffffff161415611640576040517f08c379a0000000000000000000000000000000000000000000000000000000008152600401611637906133ef565b60405180910390fd5b61164b838383611f59565b6116566000826113c3565b6001600360008573ffffffffffffffffffffffffffffffffffffffff1673ffffffffffffffffffffffffffffffffffffffff16815260200190815260200160002060008282546116a69190613764565b925050819055506001600360008473ffffffffffffffffffffffffffffffffffffffff1673ffffffffffffffffffffffffffffffffffffffff16815260200190815260200160002060008282546116fd9190613683565b92505081905550816002600083815260200190815260200160002060006101000a81548173ffffffffffffffffffffffffffffffffffffffff021916908373ffffffffffffffffffffffffffffffffffffffff160217905550808273ffffffffffffffffffffffffffffffffffffffff168473ffffffffffffffffffffffffffffffffffffffff167fddf252ad1be2c89b69c2b068fc378daa952ba7f163c4a11628f55a4df523b3ef60405160405180910390a4505050565b606060008214156117fe576040518060400160405280600181526020017f3000000000000000000000000000000000000000000000000000000000000000815250905061195e565b600082905060005b6000821461183057808061181990613880565b915050600a8261182991906136d9565b9150611806565b60008167ffffffffffffffff811115611872577f4e487b7100000000000000000000000000000000000000000000000000000000600052604160045260246000fd5b6040519080825280601f01601f1916602001820160405280156118a45781602001600182028036833780820191505090505b5090505b60008514611957576001826118bd9190613764565b9150600a856118cc91906138c9565b60306118d89190613683565b60f81b818381518110611914577f4e487b7100000000000000000000000000000000000000000000000000000000600052603260045260246000fd5b60200101907effffffffffffffffffffffffffffffffffffffffffffffffffffffffffffff1916908160001a905350600a8561195091906136d9565b94506118a8565b8093505050505b919050565b60008160405160200161197691906130dc565b6040516020818303038152906040528051906020012060001c9050919050565b600081600001549050919050565b606060008251905060008114156119cd5760405180602001604052806000815250915050611b5d565b600060036002836119de9190613683565b6119e891906136d9565b60046119f4919061370a565b90506000602082611a059190613683565b67ffffffffffffffff811115611a44577f4e487b7100000000000000000000000000000000000000000000000000000000600052604160045260246000fd5b6040519080825280601f01601f191660200182016040528015611a765781602001600182028036833780820191505090505b5090506000604051806060016040528060408152602001613a24604091399050600181016020830160005b86811015611b1a5760038101905062ffffff818a015116603f8160121c168401518060081b905060ff603f83600c1c1686015116810190508060081b905060ff603f8360061c1686015116810190508060081b905060ff603f831686015116810190508060e01b90508084526004840193505050611aa1565b506003860660018114611b345760028114611b4457611b4f565b613d3d60f01b6002830352611b4f565b603d60f81b60018303525b508484525050819450505050505b919050565b611b7c828260405180602001604052806000815250611f5e565b5050565b611b898261134f565b611bc8576040517f08c379a0000000000000000000000000000000000000000000000000000000008152600401611bbf906134af565b60405180910390fd5b80600660008481526020019081526020016000209080519060200190611bef929190612331565b505050565b6001816000016000828254019250508190555050565b611ca4838383604051602401611c2293929190613371565b6040516020818303038152906040527fe3849f79000000000000000000000000000000000000000000000000000000007bffffffffffffffffffffffffffffffffffffffffffffffffffffffff19166020820180517bffffffffffffffffffffffffffffffffffffffffffffffffffffffff8381831617835250505050611f30565b505050565b8173ffffffffffffffffffffffffffffffffffffffff168373ffffffffffffffffffffffffffffffffffffffff161415611d18576040517f08c379a0000000000000000000000000000000000000000000000000000000008152600401611d0f9061340f565b60405180910390fd5b80600560008573ffffffffffffffffffffffffffffffffffffffff1673ffffffffffffffffffffffffffffffffffffffff16815260200190815260200160002060008473ffffffffffffffffffffffffffffffffffffffff1673ffffffffffffffffffffffffffffffffffffffff16815260200190815260200160002060006101000a81548160ff0219169083151502179055508173ffffffffffffffffffffffffffffffffffffffff168373ffffffffffffffffffffffffffffffffffffffff167f17307eab39ab6107e8899845ad3d59bd9653f200f220920489ca2b5937696c3183604051611e099190613334565b60405180910390a3505050565b611e2184848461155a565b611e2d84848484611fb9565b611e6c576040517f08c379a0000000000000000000000000000000000000000000000000000000008152600401611e63906133af565b60405180910390fd5b50505050565b606060405180602001604052806000815250905090565b6060611e948261134f565b611ed3576040517f08c379a0000000000000000000000000000000000000000000000000000000008152600401611eca9061354f565b60405180910390fd5b6000611edd611e72565b90506000815111611efd5760405180602001604052806000815250611f28565b80611f07846117b6565b604051602001611f189291906130f3565b6040516020818303038152906040525b915050919050565b60008151905060006a636f6e736f6c652e6c6f679050602083016000808483855afa5050505050565b505050565b611f688383612150565b611f756000848484611fb9565b611fb4576040517f08c379a0000000000000000000000000000000000000000000000000000000008152600401611fab906133af565b60405180910390fd5b505050565b6000611fda8473ffffffffffffffffffffffffffffffffffffffff1661231e565b15612143578373ffffffffffffffffffffffffffffffffffffffff1663150b7a026120036113bb565b8786866040518563ffffffff1660e01b815260040161202594939291906132bf565b602060405180830381600087803b15801561203f57600080fd5b505af192505050801561207057506040513d601f19601f8201168201806040525081019061206d9190612675565b60015b6120f3573d80600081146120a0576040519150601f19603f3d011682016040523d82523d6000602084013e6120a5565b606091505b506000815114156120eb576040517f08c379a00000000000000000000000000000000000000000000000000000000081526004016120e2906133af565b60405180910390fd5b805181602001fd5b63150b7a0260e01b7bffffffffffffffffffffffffffffffffffffffffffffffffffffffff1916817bffffffffffffffffffffffffffffffffffffffffffffffffffffffff191614915050612148565b600190505b949350505050565b600073ffffffffffffffffffffffffffffffffffffffff168273ffffffffffffffffffffffffffffffffffffffff1614156121c0576040517f08c379a00000000000000000000000000000000000000000000000000000000081526004016121b7906134cf565b60405180910390fd5b6121c98161134f565b15612209576040517f08c379a0000000000000000000000000000000000000000000000000000000008152600401612200906133cf565b60405180910390fd5b61221560008383611f59565b6001600360008473ffffffffffffffffffffffffffffffffffffffff1673ffffffffffffffffffffffffffffffffffffffff16815260200190815260200160002060008282546122659190613683565b92505081905550816002600083815260200190815260200160002060006101000a81548173ffffffffffffffffffffffffffffffffffffffff021916908373ffffffffffffffffffffffffffffffffffffffff160217905550808273ffffffffffffffffffffffffffffffffffffffff16600073ffffffffffffffffffffffffffffffffffffffff167fddf252ad1be2c89b69c2b068fc378daa952ba7f163c4a11628f55a4df523b3ef60405160405180910390a45050565b600080823b905060008111915050919050565b82805461233d9061384e565b90600052602060002090601f01602090048101928261235f57600085556123a6565b82601f1061237857805160ff19168380011785556123a6565b828001600101855582156123a6579182015b828111156123a557825182559160200191906001019061238a565b5b5090506123b391906123b7565b5090565b5b808211156123d05760008160009055506001016123b8565b5090565b60006123e76123e2846135fb565b6135ca565b9050828152602081018484840111156123ff57600080fd5b61240a84828561380c565b509392505050565b600081359050612421816139c7565b92915050565b600081359050612436816139de565b92915050565b60008135905061244b816139f5565b92915050565b600081519050612460816139f5565b92915050565b600082601f83011261247757600080fd5b81356124878482602086016123d4565b91505092915050565b60008135905061249f81613a0c565b92915050565b6000602082840312156124b757600080fd5b60006124c584828501612412565b91505092915050565b600080604083850312156124e157600080fd5b60006124ef85828601612412565b925050602061250085828601612412565b9150509250929050565b60008060006060848603121561251f57600080fd5b600061252d86828701612412565b935050602061253e86828701612412565b925050604061254f86828701612490565b9150509250925092565b6000806000806080858703121561256f57600080fd5b600061257d87828801612412565b945050602061258e87828801612412565b935050604061259f87828801612490565b925050606085013567ffffffffffffffff8111156125bc57600080fd5b6125c887828801612466565b91505092959194509250565b600080604083850312156125e757600080fd5b60006125f585828601612412565b925050602061260685828601612427565b9150509250929050565b6000806040838503121561262357600080fd5b600061263185828601612412565b925050602061264285828601612490565b9150509250929050565b60006020828403121561265e57600080fd5b600061266c8482850161243c565b91505092915050565b60006020828403121561268757600080fd5b600061269584828501612451565b91505092915050565b6000602082840312156126b057600080fd5b60006126be84828501612490565b91505092915050565b6126d081613798565b82525050565b6126df816137aa565b82525050565b60006126f082613640565b6126fa8185613656565b935061270a81856020860161381b565b612713816139b6565b840191505092915050565b60006127298261364b565b6127338185613667565b935061274381856020860161381b565b61274c816139b6565b840191505092915050565b60006127628261364b565b61276c8185613678565b935061277c81856020860161381b565b80840191505092915050565b600081546127958161384e565b61279f8186613678565b945060018216600081146127ba57600181146127cb576127fe565b60ff198316865281860193506127fe565b6127d48561362b565b60005b838110156127f6578154818901526001820191506020810190506127d7565b838801955050505b50505092915050565b6000612814602583613678565b91507f68747470733a2f2f6e6674707265766965772e30786465762e636f6465732f3f60008301527f636f64653d0000000000000000000000000000000000000000000000000000006020830152602582019050919050565b600061287a603283613667565b91507f4552433732313a207472616e7366657220746f206e6f6e20455243373231526560008301527f63656976657220696d706c656d656e74657200000000000000000000000000006020830152604082019050919050565b60006128e0601c83613667565b91507f4552433732313a20746f6b656e20616c7265616479206d696e746564000000006000830152602082019050919050565b6000612920600a83613678565b91507f54484952445f574f5244000000000000000000000000000000000000000000006000830152600a82019050919050565b6000612960602483613667565b91507f4552433732313a207472616e7366657220746f20746865207a65726f2061646460008301527f72657373000000000000000000000000000000000000000000000000000000006020830152604082019050919050565b60006129c6601983613667565b91507f4552433732313a20617070726f766520746f2063616c6c6572000000000000006000830152602082019050919050565b6000612a06606383613678565b91507f222c20226465736372697074696f6e223a20224120686967686c79206163636c60008301527f61696d656420636f6c6c656374696f6e206f6620737175617265732e222c202260208301527f696d616765223a2022646174613a696d6167652f7376672b786d6c3b6261736560408301527f36342c00000000000000000000000000000000000000000000000000000000006060830152606382019050919050565b6000612ab8600b83613678565b91507f5345434f4e445f574f52440000000000000000000000000000000000000000006000830152600b82019050919050565b6000612af8602c83613667565b91507f4552433732313a206f70657261746f7220717565727920666f72206e6f6e657860008301527f697374656e7420746f6b656e00000000000000000000000000000000000000006020830152604082019050919050565b6000612b5e603883613667565b91507f4552433732313a20617070726f76652063616c6c6572206973206e6f74206f7760008301527f6e6572206e6f7220617070726f76656420666f7220616c6c00000000000000006020830152604082019050919050565b6000612bc4602a83613667565b91507f4552433732313a2062616c616e636520717565727920666f7220746865207a6560008301527f726f2061646472657373000000000000000000000000000000000000000000006020830152604082019050919050565b6000612c2a602983613667565b91507f4552433732313a206f776e657220717565727920666f72206e6f6e657869737460008301527f656e7420746f6b656e00000000000000000000000000000000000000000000006020830152604082019050919050565b6000612c90602e83613667565b91507f45524337323155524953746f726167653a2055524920736574206f66206e6f6e60008301527f6578697374656e7420746f6b656e0000000000000000000000000000000000006020830152604082019050919050565b6000612cf6600283613678565b91507f227d0000000000000000000000000000000000000000000000000000000000006000830152600282019050919050565b6000612d36602083613667565b91507f4552433732313a206d696e7420746f20746865207a65726f20616464726573736000830152602082019050919050565b6000612d76603183613667565b91507f45524337323155524953746f726167653a2055524920717565727920666f722060008301527f6e6f6e6578697374656e7420746f6b656e0000000000000000000000000000006020830152604082019050919050565b6000612ddc602c83613667565b91507f4552433732313a20617070726f76656420717565727920666f72206e6f6e657860008301527f697374656e7420746f6b656e00000000000000000000000000000000000000006020830152604082019050919050565b6000612e42602983613667565b91507f4552433732313a207472616e73666572206f6620746f6b656e2074686174206960008301527f73206e6f74206f776e00000000000000000000000000000000000000000000006020830152604082019050919050565b6000612ea8602f83613667565b91507f4552433732314d657461646174613a2055524920717565727920666f72206e6f60008301527f6e6578697374656e7420746f6b656e00000000000000000000000000000000006020830152604082019050919050565b6000612f0e600a83613678565b91507f7b226e616d65223a2022000000000000000000000000000000000000000000006000830152600a82019050919050565b6000612f4e602183613667565b91507f4552433732313a20617070726f76616c20746f2063757272656e74206f776e6560008301527f72000000000000000000000000000000000000000000000000000000000000006020830152604082019050919050565b6000612fb4600a83613678565b91507f46495253545f574f5244000000000000000000000000000000000000000000006000830152600a82019050919050565b6000612ff4601d83613678565b91507f646174613a6170706c69636174696f6e2f6a736f6e3b6261736536342c0000006000830152601d82019050919050565b6000613034603183613667565b91507f4552433732313a207472616e736665722063616c6c6572206973206e6f74206f60008301527f776e6572206e6f7220617070726f7665640000000000000000000000000000006020830152604082019050919050565b600061309a600583613678565b91507f434f4c4f520000000000000000000000000000000000000000000000000000006000830152600582019050919050565b6130d681613802565b82525050565b60006130e88284612757565b915081905092915050565b60006130ff8285612757565b915061310b8284612757565b91508190509392505050565b60006131238286612757565b915061312f8285612757565b915061313b8284612757565b9150819050949350505050565b60006131548288612788565b91506131608287612757565b915061316c8286612788565b91506131788285612757565b91506131848284612788565b91508190509695505050505050565b600061319e82612807565b91506131aa8284612757565b915081905092915050565b60006131c082612913565b91506131cc8284612757565b915081905092915050565b60006131e282612aab565b91506131ee8284612757565b915081905092915050565b600061320482612f01565b91506132108285612757565b915061321b826129f9565b91506132278284612757565b915061323282612ce9565b91508190509392505050565b600061324982612fa7565b91506132558284612757565b915081905092915050565b600061326b82612fe7565b91506132778284612757565b915081905092915050565b600061328d8261308d565b91506132998284612757565b915081905092915050565b60006020820190506132b960008301846126c7565b92915050565b60006080820190506132d460008301876126c7565b6132e160208301866126c7565b6132ee60408301856130cd565b818103606083015261330081846126e5565b905095945050505050565b600060408201905061332060008301856126c7565b61332d60208301846130cd565b9392505050565b600060208201905061334960008301846126d6565b92915050565b60006020820190508181036000830152613369818461271e565b905092915050565b6000606082019050818103600083015261338b818661271e565b905061339a60208301856130cd565b6133a760408301846126c7565b949350505050565b600060208201905081810360008301526133c88161286d565b9050919050565b600060208201905081810360008301526133e8816128d3565b9050919050565b6000602082019050818103600083015261340881612953565b9050919050565b60006020820190508181036000830152613428816129b9565b9050919050565b6000602082019050818103600083015261344881612aeb565b9050919050565b6000602082019050818103600083015261346881612b51565b9050919050565b6000602082019050818103600083015261348881612bb7565b9050919050565b600060208201905081810360008301526134a881612c1d565b9050919050565b600060208201905081810360008301526134c881612c83565b9050919050565b600060208201905081810360008301526134e881612d29565b9050919050565b6000602082019050818103600083015261350881612d69565b9050919050565b6000602082019050818103600083015261352881612dcf565b9050919050565b6000602082019050818103600083015261354881612e35565b9050919050565b6000602082019050818103600083015261356881612e9b565b9050919050565b6000602082019050818103600083015261358881612f41565b9050919050565b600060208201905081810360008301526135a881613027565b9050919050565b60006020820190506135c460008301846130cd565b92915050565b6000604051905081810181811067ffffffffffffffff821117156135f1576135f0613987565b5b8060405250919050565b600067ffffffffffffffff82111561361657613615613987565b5b601f19601f8301169050602081019050919050565b60008190508160005260206000209050919050565b600081519050919050565b600081519050919050565b600082825260208201905092915050565b600082825260208201905092915050565b600081905092915050565b600061368e82613802565b915061369983613802565b9250827fffffffffffffffffffffffffffffffffffffffffffffffffffffffffffffffff038211156136ce576136cd6138fa565b5b828201905092915050565b60006136e482613802565b91506136ef83613802565b9250826136ff576136fe613929565b5b828204905092915050565b600061371582613802565b915061372083613802565b9250817fffffffffffffffffffffffffffffffffffffffffffffffffffffffffffffffff0483118215151615613759576137586138fa565b5b828202905092915050565b600061376f82613802565b915061377a83613802565b92508282101561378d5761378c6138fa565b5b828203905092915050565b60006137a3826137e2565b9050919050565b60008115159050919050565b60007fffffffff0000000000000000000000000000000000000000000000000000000082169050919050565b600073ffffffffffffffffffffffffffffffffffffffff82169050919050565b6000819050919050565b82818337600083830152505050565b60005b8381101561383957808201518184015260208101905061381e565b83811115613848576000848401525b50505050565b6000600282049050600182168061386657607f821691505b6020821081141561387a57613879613958565b5b50919050565b600061388b82613802565b91507fffffffffffffffffffffffffffffffffffffffffffffffffffffffffffffffff8214156138be576138bd6138fa565b5b600182019050919050565b60006138d482613802565b91506138df83613802565b9250826138ef576138ee613929565b5b828206905092915050565b7f4e487b7100000000000000000000000000000000000000000000000000000000600052601160045260246000fd5b7f4e487b7100000000000000000000000000000000000000000000000000000000600052601260045260246000fd5b7f4e487b7100000000000000000000000000000000000000000000000000000000600052602260045260246000fd5b7f4e487b7100000000000000000000000000000000000000000000000000000000600052604160045260246000fd5b6000601f19601f8301169050919050565b6139d081613798565b81146139db57600080fd5b50565b6139e7816137aa565b81146139f257600080fd5b50565b6139fe816137b6565b8114613a0957600080fd5b50565b613a1581613802565b8114613a2057600080fd5b5056fe4142434445464748494a4b4c4d4e4f505152535455565758595a6162636465666768696a6b6c6d6e6f707172737475767778797a303132333435363738392b2f416e204e465420772f20494420257320686173206265656e206d696e74656420666f72202573a2646970667358221220db87c0c3d3066dfb9b772bf7beb8f7e6525c088ee9439f0debb6e3333e827a3e64736f6c634300080000333c73766720786d6c6e733d27687474703a2f2f7777772e77332e6f72672f323030302f73766727207072657365727665417370656374526174696f3d27784d696e594d696e206d656574272076696577426f783d273020302033353020333530273e3c7374796c653e2e62617365207b2066696c6c3a2077686974653b20666f6e742d66616d696c793a2073657269663b20666f6e742d73697a653a20323470783b207d3c2f7374796c653e3c726563742077696474683d273130302527206865696768743d2731303025272066696c6c3d27626c61636b27202f3e3c7465787420783d273530252720793d273530252720636c6173733d27626173652720646f6d696e616e742d626173656c696e653d276d6964646c652720746578742d616e63686f723d276d6964646c65273e272f3e3c7465787420783d273530252720793d273530252720636c6173733d27626173652720646f6d696e616e742d626173656c696e653d276d6964646c652720746578742d616e63686f723d276d6964646c65273e",
  "linkReferences": {},
  "deployedLinkReferences": {}
}