{
  "_format": "hh-sol-artifact-1",
  "contractName": "GroupNFT",
  "sourceName": "contracts/GroupNFT.sol",
  "abi": [
    {
      "inputs": [],
      "stateMutability": "nonpayable",
      "type": "constructor"
    },
    {
      "anonymous": false,
      "inputs": [
        {
          "indexed": true,
          "internalType": "address",
          "name": "owner",
          "type": "address"
        },
        {
          "indexed": true,
          "internalType": "address",
          "name": "approved",
          "type": "address"
        },
        {
          "indexed": true,
          "internalType": "uint256",
          "name": "tokenId",
          "type": "uint256"
        }
      ],
      "name": "Approval",
      "type": "event"
    },
    {
      "anonymous": false,
      "inputs": [
        {
          "indexed": true,
          "internalType": "address",
          "name": "owner",
          "type": "address"
        },
        {
          "indexed": true,
          "internalType": "address",
          "name": "operator",
          "type": "address"
        },
        {
          "indexed": false,
          "internalType": "bool",
          "name": "approved",
          "type": "bool"
        }
      ],
      "name": "ApprovalForAll",
      "type": "event"
    },
    {
      "anonymous": false,
      "inputs": [
        {
          "indexed": true,
          "internalType": "address",
          "name": "from",
          "type": "address"
        },
        {
          "indexed": true,
          "internalType": "address",
          "name": "to",
          "type": "address"
        },
        {
          "indexed": true,
          "internalType": "uint256",
          "name": "tokenId",
          "type": "uint256"
        }
      ],
      "name": "Transfer",
      "type": "event"
    },
    {
      "inputs": [
        {
          "internalType": "address",
          "name": "to",
          "type": "address"
        },
        {
          "internalType": "uint256",
          "name": "tokenId",
          "type": "uint256"
        }
      ],
      "name": "approve",
      "outputs": [],
      "stateMutability": "nonpayable",
      "type": "function"
    },
    {
      "inputs": [
        {
          "internalType": "address",
          "name": "owner",
          "type": "address"
        }
      ],
      "name": "balanceOf",
      "outputs": [
        {
          "internalType": "uint256",
          "name": "",
          "type": "uint256"
        }
      ],
      "stateMutability": "view",
      "type": "function"
    },
    {
      "inputs": [
        {
          "internalType": "uint256",
          "name": "tokenId",
          "type": "uint256"
        }
      ],
      "name": "getApproved",
      "outputs": [
        {
          "internalType": "address",
          "name": "",
          "type": "address"
        }
      ],
      "stateMutability": "view",
      "type": "function"
    },
    {
      "inputs": [
        {
          "internalType": "uint256",
          "name": "tokenId",
          "type": "uint256"
        }
      ],
      "name": "getRandFirstWord",
      "outputs": [
        {
          "internalType": "string",
          "name": "",
          "type": "string"
        }
      ],
      "stateMutability": "view",
      "type": "function"
    },
    {
      "inputs": [
        {
          "internalType": "uint256",
          "name": "tokenId",
          "type": "uint256"
        }
      ],
      "name": "getRandSecondWord",
      "outputs": [
        {
          "internalType": "string",
          "name": "",
          "type": "string"
        }
      ],
      "stateMutability": "view",
      "type": "function"
    },
    {
      "inputs": [
        {
          "internalType": "uint256",
          "name": "tokenId",
          "type": "uint256"
        }
      ],
      "name": "getRandThirdWord",
      "outputs": [
        {
          "internalType": "string",
          "name": "",
          "type": "string"
        }
      ],
      "stateMutability": "view",
      "type": "function"
    },
    {
      "inputs": [
        {
          "internalType": "address",
          "name": "owner",
          "type": "address"
        },
        {
          "internalType": "address",
          "name": "operator",
          "type": "address"
        }
      ],
      "name": "isApprovedForAll",
      "outputs": [
        {
          "internalType": "bool",
          "name": "",
          "type": "bool"
        }
      ],
      "stateMutability": "view",
      "type": "function"
    },
    {
      "inputs": [],
      "name": "makeGroupNFTs",
      "outputs": [],
      "stateMutability": "nonpayable",
      "type": "function"
    },
    {
      "inputs": [],
      "name": "name",
      "outputs": [
        {
          "internalType": "string",
          "name": "",
          "type": "string"
        }
      ],
      "stateMutability": "view",
      "type": "function"
    },
    {
      "inputs": [
        {
          "internalType": "uint256",
          "name": "tokenId",
          "type": "uint256"
        }
      ],
      "name": "ownerOf",
      "outputs": [
        {
          "internalType": "address",
          "name": "",
          "type": "address"
        }
      ],
      "stateMutability": "view",
      "type": "function"
    },
    {
      "inputs": [
        {
          "internalType": "address",
          "name": "from",
          "type": "address"
        },
        {
          "internalType": "address",
          "name": "to",
          "type": "address"
        },
        {
          "internalType": "uint256",
          "name": "tokenId",
          "type": "uint256"
        }
      ],
      "name": "safeTransferFrom",
      "outputs": [],
      "stateMutability": "nonpayable",
      "type": "function"
    },
    {
      "inputs": [
        {
          "internalType": "address",
          "name": "from",
          "type": "address"
        },
        {
          "internalType": "address",
          "name": "to",
          "type": "address"
        },
        {
          "internalType": "uint256",
          "name": "tokenId",
          "type": "uint256"
        },
        {
          "internalType": "bytes",
          "name": "_data",
          "type": "bytes"
        }
      ],
      "name": "safeTransferFrom",
      "outputs": [],
      "stateMutability": "nonpayable",
      "type": "function"
    },
    {
      "inputs": [
        {
          "internalType": "address",
          "name": "operator",
          "type": "address"
        },
        {
          "internalType": "bool",
          "name": "approved",
          "type": "bool"
        }
      ],
      "name": "setApprovalForAll",
      "outputs": [],
      "stateMutability": "nonpayable",
      "type": "function"
    },
    {
      "inputs": [
        {
          "internalType": "bytes4",
          "name": "interfaceId",
          "type": "bytes4"
        }
      ],
      "name": "supportsInterface",
      "outputs": [
        {
          "internalType": "bool",
          "name": "",
          "type": "bool"
        }
      ],
      "stateMutability": "view",
      "type": "function"
    },
    {
      "inputs": [],
      "name": "symbol",
      "outputs": [
        {
          "internalType": "string",
          "name": "",
          "type": "string"
        }
      ],
      "stateMutability": "view",
      "type": "function"
    },
    {
      "inputs": [
        {
          "internalType": "uint256",
          "name": "tokenId",
          "type": "uint256"
        }
      ],
      "name": "tokenURI",
      "outputs": [
        {
          "internalType": "string",
          "name": "",
          "type": "string"
        }
      ],
      "stateMutability": "view",
      "type": "function"
    },
    {
      "inputs": [
        {
          "internalType": "address",
          "name": "from",
          "type": "address"
        },
        {
          "internalType": "address",
          "name": "to",
          "type": "address"
        },
        {
          "internalType": "uint256",
          "name": "tokenId",
          "type": "uint256"
        }
      ],
      "name": "transferFrom",
      "outputs": [],
      "stateMutability": "nonpayable",
      "type": "function"
    }
  ],
  "bytecode": "0x608060405260405180610160016040528061012f81526020016200413f61012f91396008908051906020019062000038929190620006cc565b506040518060400160405280600d81526020017f3c2f746578743e3c2f7376673e000000000000000000000000000000000000008152506009908051906020019062000086929190620006cc565b506040518060c001604052806040518060400160405280600481526020017f466c69700000000000000000000000000000000000000000000000000000000081525081526020016040518060400160405280600581526020017f48696d626f00000000000000000000000000000000000000000000000000000081525081526020016040518060400160405280600981526020017f5a65726f2044617973000000000000000000000000000000000000000000000081525081526020016040518060400160405280600381526020017f437570000000000000000000000000000000000000000000000000000000000081525081526020016040518060400160405280600781526020017f56616363696e650000000000000000000000000000000000000000000000000081525081526020016040518060400160405280600481526020017f4d656f7700000000000000000000000000000000000000000000000000000000815250815250600a906006620002049291906200075d565b506040518060c001604052806040518060400160405280600581526020017f4a4f52545300000000000000000000000000000000000000000000000000000081525081526020016040518060400160405280600481526020017f4a45414e0000000000000000000000000000000000000000000000000000000081525081526020016040518060400160405280600981526020017f4d6172676172696e65000000000000000000000000000000000000000000000081525081526020016040518060400160405280600581526020017f537765657400000000000000000000000000000000000000000000000000000081525081526020016040518060400160405280600881526020017f4163636964656e7400000000000000000000000000000000000000000000000081525081526020016040518060400160405280600681526020017f436c6f7365740000000000000000000000000000000000000000000000000000815250815250600b906006620003829291906200075d565b506040518060c001604052806040518060400160405280600481526020017f4f70656e0000000000000000000000000000000000000000000000000000000081525081526020016040518060400160405280600481526020017f446f6f720000000000000000000000000000000000000000000000000000000081525081526020016040518060400160405280600681526020017f506f7461746f000000000000000000000000000000000000000000000000000081525081526020016040518060400160405280600481526020017f48656c700000000000000000000000000000000000000000000000000000000081525081526020016040518060400160405280600781526020017f547261707065640000000000000000000000000000000000000000000000000081525081526020016040518060400160405280600881526020017f467269656e646c79000000000000000000000000000000000000000000000000815250815250600c906006620005009291906200075d565b503480156200050e57600080fd5b506040518060400160405280600981526020017f47726f75704e46543100000000000000000000000000000000000000000000008152506040518060400160405280600781526020017f49474f5443485500000000000000000000000000000000000000000000000000815250816000908051906020019062000593929190620006cc565b508060019080519060200190620005ac929190620006cc565b505050620005fa6040518060400160405280601181526020017f637265617465642074686520746f6b656e0000000000000000000000000000008152506200060060201b620010a71760201c565b6200097e565b620006a08160405160240162000617919062000892565b6040516020818303038152906040527f41304fac000000000000000000000000000000000000000000000000000000007bffffffffffffffffffffffffffffffffffffffffffffffffffffffff19166020820180517bffffffffffffffffffffffffffffffffffffffffffffffffffffffff8381831617835250505050620006a360201b60201c565b50565b60008151905060006a636f6e736f6c652e6c6f679050602083016000808483855afa5050505050565b828054620006da9062000908565b90600052602060002090601f016020900481019282620006fe57600085556200074a565b82601f106200071957805160ff19168380011785556200074a565b828001600101855582156200074a579182015b82811115620007495782518255916020019190600101906200072c565b5b509050620007599190620007c4565b5090565b828054828255906000526020600020908101928215620007b1579160200282015b82811115620007b05782518290805190602001906200079f929190620006cc565b50916020019190600101906200077e565b5b509050620007c09190620007e3565b5090565b5b80821115620007df576000816000905550600101620007c5565b5090565b5b80821115620008075760008181620007fd91906200080b565b50600101620007e4565b5090565b508054620008199062000908565b6000825580601f106200082d57506200084e565b601f0160209004906000526020600020908101906200084d9190620007c4565b5b50565b60006200085e82620008b6565b6200086a8185620008c1565b93506200087c818560208601620008d2565b62000887816200096d565b840191505092915050565b60006020820190508181036000830152620008ae818462000851565b905092915050565b600081519050919050565b600082825260208201905092915050565b60005b83811015620008f2578082015181840152602081019050620008d5565b8381111562000902576000848401525b50505050565b600060028204905060018216806200092157607f821691505b602082108114156200093857620009376200093e565b5b50919050565b7f4e487b7100000000000000000000000000000000000000000000000000000000600052602260045260246000fd5b6000601f19601f8301169050919050565b6137b1806200098e6000396000f3fe608060405234801561001057600080fd5b506004361061010b5760003560e01c80636352211e116100a2578063a22cb46511610071578063a22cb465146102ca578063b88d4fde146102e6578063c87b56dd14610302578063d2a958fa14610332578063e985e9c5146103625761010b565b80636352211e1461021c57806370a082311461024c57806384fb8b371461027c57806395d89b41146102ac5761010b565b806323b872dd116100de57806323b872dd146101aa5780632a4363a2146101c657806342842e0e146101f657806355ae7c82146102125761010b565b806301ffc9a71461011057806306fdde0314610140578063081812fc1461015e578063095ea7b31461018e575b600080fd5b61012a600480360381019061012591906124a7565b610392565b6040516101379190613026565b60405180910390f35b610148610474565b6040516101559190613041565b60405180910390f35b610178600480360381019061017391906124f9565b610506565b6040516101859190612fbf565b60405180910390f35b6101a860048036038101906101a3919061246b565b61058b565b005b6101c460048036038101906101bf9190612365565b6106a3565b005b6101e060048036038101906101db91906124f9565b610703565b6040516101ed9190613041565b60405180910390f35b610210600480360381019061020b9190612365565b610821565b005b61021a610841565b005b610236600480360381019061023191906124f9565b610a11565b6040516102439190612fbf565b60405180910390f35b61026660048036038101906102619190612300565b610ac3565b60405161027391906132a1565b60405180910390f35b610296600480360381019061029191906124f9565b610b7b565b6040516102a39190613041565b60405180910390f35b6102b4610c99565b6040516102c19190613041565b60405180910390f35b6102e460048036038101906102df919061242f565b610d2b565b005b61030060048036038101906102fb91906123b4565b610d41565b005b61031c600480360381019061031791906124f9565b610da3565b6040516103299190613041565b60405180910390f35b61034c600480360381019061034791906124f9565b610ef5565b6040516103599190613041565b60405180910390f35b61037c60048036038101906103779190612329565b611013565b6040516103899190613026565b60405180910390f35b60007f80ac58cd000000000000000000000000000000000000000000000000000000007bffffffffffffffffffffffffffffffffffffffffffffffffffffffff1916827bffffffffffffffffffffffffffffffffffffffffffffffffffffffff1916148061045d57507f5b5e139f000000000000000000000000000000000000000000000000000000007bffffffffffffffffffffffffffffffffffffffffffffffffffffffff1916827bffffffffffffffffffffffffffffffffffffffffffffffffffffffff1916145b8061046d575061046c82611140565b5b9050919050565b60606000805461048390613540565b80601f01602080910402602001604051908101604052809291908181526020018280546104af90613540565b80156104fc5780601f106104d1576101008083540402835291602001916104fc565b820191906000526020600020905b8154815290600101906020018083116104df57829003601f168201915b5050505050905090565b6000610511826111aa565b610550576040517f08c379a000000000000000000000000000000000000000000000000000000000815260040161054790613201565b60405180910390fd5b6004600083815260200190815260200160002060009054906101000a900473ffffffffffffffffffffffffffffffffffffffff169050919050565b600061059682610a11565b90508073ffffffffffffffffffffffffffffffffffffffff168373ffffffffffffffffffffffffffffffffffffffff161415610607576040517f08c379a00000000000000000000000000000000000000000000000000000000081526004016105fe90613261565b60405180910390fd5b8073ffffffffffffffffffffffffffffffffffffffff16610626611216565b73ffffffffffffffffffffffffffffffffffffffff16148061065557506106548161064f611216565b611013565b5b610694576040517f08c379a000000000000000000000000000000000000000000000000000000000815260040161068b90613141565b60405180910390fd5b61069e838361121e565b505050565b6106b46106ae611216565b826112d7565b6106f3576040517f08c379a00000000000000000000000000000000000000000000000000000000081526004016106ea90613281565b60405180910390fd5b6106fe8383836113b5565b505050565b6060600061073761071384611611565b6040516020016107239190612f7b565b6040516020818303038152906040526117be565b9050600a805490508161074a91906135bb565b9050600c8181548110610786577f4e487b7100000000000000000000000000000000000000000000000000000000600052603260045260246000fd5b90600052602060002001805461079b90613540565b80601f01602080910402602001604051908101604052809291908181526020018280546107c790613540565b80156108145780601f106107e957610100808354040283529160200191610814565b820191906000526020600020905b8154815290600101906020018083116107f757829003601f168201915b5050505050915050919050565b61083c83838360405180602001604052806000815250610d41565b505050565b600061084d60076117f1565b9050600061085a82610b7b565b9050600061086783610ef5565b9050600061087484610703565b9050600083838360405160200161088d93929190612eb2565b6040516020818303038152906040529050600060088260096040516020016108b793929190612ee3565b604051602081830303815290604052905060006108fc836108d7846117ff565b6040516020016108e8929190612f36565b6040516020818303038152906040526117ff565b90506000816040516020016109119190612f9d565b60405160208183030381529060405290506109606040518060400160405280601581526020017f0a2d2d2d2d2d2d2d2d2d2d2d2d2d2d2d2d2d2d2d2d00000000000000000000008152506110a7565b610988816040516020016109749190612f14565b6040516020818303038152906040526110a7565b6109c66040518060400160405280601581526020017f2d2d2d2d2d2d2d2d2d2d2d2d2d2d2d2d2d2d2d2d0a00000000000000000000008152506110a7565b6109d033896119bd565b6109da88826119db565b6109e46007611a4f565b610a07604051806060016040528060268152602001613756602691398933611a65565b5050505050505050565b6000806002600084815260200190815260200160002060009054906101000a900473ffffffffffffffffffffffffffffffffffffffff169050600073ffffffffffffffffffffffffffffffffffffffff168173ffffffffffffffffffffffffffffffffffffffff161415610aba576040517f08c379a0000000000000000000000000000000000000000000000000000000008152600401610ab190613181565b60405180910390fd5b80915050919050565b60008073ffffffffffffffffffffffffffffffffffffffff168273ffffffffffffffffffffffffffffffffffffffff161415610b34576040517f08c379a0000000000000000000000000000000000000000000000000000000008152600401610b2b90613161565b60405180910390fd5b600360008373ffffffffffffffffffffffffffffffffffffffff1673ffffffffffffffffffffffffffffffffffffffff168152602001908152602001600020549050919050565b60606000610baf610b8b84611611565b604051602001610b9b9190612f7b565b6040516020818303038152906040526117be565b9050600a8054905081610bc291906135bb565b9050600a8181548110610bfe577f4e487b7100000000000000000000000000000000000000000000000000000000600052603260045260246000fd5b906000526020600020018054610c1390613540565b80601f0160208091040260200160405190810160405280929190818152602001828054610c3f90613540565b8015610c8c5780601f10610c6157610100808354040283529160200191610c8c565b820191906000526020600020905b815481529060010190602001808311610c6f57829003601f168201915b5050505050915050919050565b606060018054610ca890613540565b80601f0160208091040260200160405190810160405280929190818152602001828054610cd490613540565b8015610d215780601f10610cf657610100808354040283529160200191610d21565b820191906000526020600020905b815481529060010190602001808311610d0457829003601f168201915b5050505050905090565b610d3d610d36611216565b8383611b04565b5050565b610d52610d4c611216565b836112d7565b610d91576040517f08c379a0000000000000000000000000000000000000000000000000000000008152600401610d8890613281565b60405180910390fd5b610d9d84848484611c71565b50505050565b6060610dae826111aa565b610ded576040517f08c379a0000000000000000000000000000000000000000000000000000000008152600401610de4906131e1565b60405180910390fd5b6000600660008481526020019081526020016000208054610e0d90613540565b80601f0160208091040260200160405190810160405280929190818152602001828054610e3990613540565b8015610e865780601f10610e5b57610100808354040283529160200191610e86565b820191906000526020600020905b815481529060010190602001808311610e6957829003601f168201915b505050505090506000610e97611ccd565b9050600081511415610ead578192505050610ef0565b600082511115610ee2578082604051602001610eca929190612e8e565b60405160208183030381529060405292505050610ef0565b610eeb84611ce4565b925050505b919050565b60606000610f29610f0584611611565b604051602001610f159190612f7b565b6040516020818303038152906040526117be565b9050600a8054905081610f3c91906135bb565b9050600b8181548110610f78577f4e487b7100000000000000000000000000000000000000000000000000000000600052603260045260246000fd5b906000526020600020018054610f8d90613540565b80601f0160208091040260200160405190810160405280929190818152602001828054610fb990613540565b80156110065780601f10610fdb57610100808354040283529160200191611006565b820191906000526020600020905b815481529060010190602001808311610fe957829003601f168201915b5050505050915050919050565b6000600560008473ffffffffffffffffffffffffffffffffffffffff1673ffffffffffffffffffffffffffffffffffffffff16815260200190815260200160002060008373ffffffffffffffffffffffffffffffffffffffff1673ffffffffffffffffffffffffffffffffffffffff16815260200190815260200160002060009054906101000a900460ff16905092915050565b61113d816040516024016110bb9190613041565b6040516020818303038152906040527f41304fac000000000000000000000000000000000000000000000000000000007bffffffffffffffffffffffffffffffffffffffffffffffffffffffff19166020820180517bffffffffffffffffffffffffffffffffffffffffffffffffffffffff8381831617835250505050611d8b565b50565b60007f01ffc9a7000000000000000000000000000000000000000000000000000000007bffffffffffffffffffffffffffffffffffffffffffffffffffffffff1916827bffffffffffffffffffffffffffffffffffffffffffffffffffffffff1916149050919050565b60008073ffffffffffffffffffffffffffffffffffffffff166002600084815260200190815260200160002060009054906101000a900473ffffffffffffffffffffffffffffffffffffffff1673ffffffffffffffffffffffffffffffffffffffff1614159050919050565b600033905090565b816004600083815260200190815260200160002060006101000a81548173ffffffffffffffffffffffffffffffffffffffff021916908373ffffffffffffffffffffffffffffffffffffffff160217905550808273ffffffffffffffffffffffffffffffffffffffff1661129183610a11565b73ffffffffffffffffffffffffffffffffffffffff167f8c5be1e5ebec7d5bd14f71427d1e84f3dd0314c0f7b2291e5b200ac8c7c3b92560405160405180910390a45050565b60006112e2826111aa565b611321576040517f08c379a000000000000000000000000000000000000000000000000000000000815260040161131890613121565b60405180910390fd5b600061132c83610a11565b90508073ffffffffffffffffffffffffffffffffffffffff168473ffffffffffffffffffffffffffffffffffffffff16148061139b57508373ffffffffffffffffffffffffffffffffffffffff1661138384610506565b73ffffffffffffffffffffffffffffffffffffffff16145b806113ac57506113ab8185611013565b5b91505092915050565b8273ffffffffffffffffffffffffffffffffffffffff166113d582610a11565b73ffffffffffffffffffffffffffffffffffffffff161461142b576040517f08c379a000000000000000000000000000000000000000000000000000000000815260040161142290613221565b60405180910390fd5b600073ffffffffffffffffffffffffffffffffffffffff168273ffffffffffffffffffffffffffffffffffffffff16141561149b576040517f08c379a0000000000000000000000000000000000000000000000000000000008152600401611492906130e1565b60405180910390fd5b6114a6838383611db4565b6114b160008261121e565b6001600360008573ffffffffffffffffffffffffffffffffffffffff1673ffffffffffffffffffffffffffffffffffffffff16815260200190815260200160002060008282546115019190613456565b925050819055506001600360008473ffffffffffffffffffffffffffffffffffffffff1673ffffffffffffffffffffffffffffffffffffffff16815260200190815260200160002060008282546115589190613375565b92505081905550816002600083815260200190815260200160002060006101000a81548173ffffffffffffffffffffffffffffffffffffffff021916908373ffffffffffffffffffffffffffffffffffffffff160217905550808273ffffffffffffffffffffffffffffffffffffffff168473ffffffffffffffffffffffffffffffffffffffff167fddf252ad1be2c89b69c2b068fc378daa952ba7f163c4a11628f55a4df523b3ef60405160405180910390a4505050565b60606000821415611659576040518060400160405280600181526020017f300000000000000000000000000000000000000000000000000000000000000081525090506117b9565b600082905060005b6000821461168b57808061167490613572565b915050600a8261168491906133cb565b9150611661565b60008167ffffffffffffffff8111156116cd577f4e487b7100000000000000000000000000000000000000000000000000000000600052604160045260246000fd5b6040519080825280601f01601f1916602001820160405280156116ff5781602001600182028036833780820191505090505b5090505b600085146117b2576001826117189190613456565b9150600a8561172791906135bb565b60306117339190613375565b60f81b81838151811061176f577f4e487b7100000000000000000000000000000000000000000000000000000000600052603260045260246000fd5b60200101907effffffffffffffffffffffffffffffffffffffffffffffffffffffffffffff1916908160001a905350600a856117ab91906133cb565b9450611703565b8093505050505b919050565b6000816040516020016117d19190612e77565b6040516020818303038152906040528051906020012060001c9050919050565b600081600001549050919050565b6060600082519050600081141561182857604051806020016040528060008152509150506119b8565b600060036002836118399190613375565b61184391906133cb565b600461184f91906133fc565b905060006020826118609190613375565b67ffffffffffffffff81111561189f577f4e487b7100000000000000000000000000000000000000000000000000000000600052604160045260246000fd5b6040519080825280601f01601f1916602001820160405280156118d15781602001600182028036833780820191505090505b5090506000604051806060016040528060408152602001613716604091399050600181016020830160005b868110156119755760038101905062ffffff818a015116603f8160121c168401518060081b905060ff603f83600c1c1686015116810190508060081b905060ff603f8360061c1686015116810190508060081b905060ff603f831686015116810190508060e01b905080845260048401935050506118fc565b50600386066001811461198f576002811461199f576119aa565b613d3d60f01b60028303526119aa565b603d60f81b60018303525b508484525050819450505050505b919050565b6119d7828260405180602001604052806000815250611db9565b5050565b6119e4826111aa565b611a23576040517f08c379a0000000000000000000000000000000000000000000000000000000008152600401611a1a906131a1565b60405180910390fd5b80600660008481526020019081526020016000209080519060200190611a4a92919061218c565b505050565b6001816000016000828254019250508190555050565b611aff838383604051602401611a7d93929190613063565b6040516020818303038152906040527fe3849f79000000000000000000000000000000000000000000000000000000007bffffffffffffffffffffffffffffffffffffffffffffffffffffffff19166020820180517bffffffffffffffffffffffffffffffffffffffffffffffffffffffff8381831617835250505050611d8b565b505050565b8173ffffffffffffffffffffffffffffffffffffffff168373ffffffffffffffffffffffffffffffffffffffff161415611b73576040517f08c379a0000000000000000000000000000000000000000000000000000000008152600401611b6a90613101565b60405180910390fd5b80600560008573ffffffffffffffffffffffffffffffffffffffff1673ffffffffffffffffffffffffffffffffffffffff16815260200190815260200160002060008473ffffffffffffffffffffffffffffffffffffffff1673ffffffffffffffffffffffffffffffffffffffff16815260200190815260200160002060006101000a81548160ff0219169083151502179055508173ffffffffffffffffffffffffffffffffffffffff168373ffffffffffffffffffffffffffffffffffffffff167f17307eab39ab6107e8899845ad3d59bd9653f200f220920489ca2b5937696c3183604051611c649190613026565b60405180910390a3505050565b611c7c8484846113b5565b611c8884848484611e14565b611cc7576040517f08c379a0000000000000000000000000000000000000000000000000000000008152600401611cbe906130a1565b60405180910390fd5b50505050565b606060405180602001604052806000815250905090565b6060611cef826111aa565b611d2e576040517f08c379a0000000000000000000000000000000000000000000000000000000008152600401611d2590613241565b60405180910390fd5b6000611d38611ccd565b90506000815111611d585760405180602001604052806000815250611d83565b80611d6284611611565b604051602001611d73929190612e8e565b6040516020818303038152906040525b915050919050565b60008151905060006a636f6e736f6c652e6c6f679050602083016000808483855afa5050505050565b505050565b611dc38383611fab565b611dd06000848484611e14565b611e0f576040517f08c379a0000000000000000000000000000000000000000000000000000000008152600401611e06906130a1565b60405180910390fd5b505050565b6000611e358473ffffffffffffffffffffffffffffffffffffffff16612179565b15611f9e578373ffffffffffffffffffffffffffffffffffffffff1663150b7a02611e5e611216565b8786866040518563ffffffff1660e01b8152600401611e809493929190612fda565b602060405180830381600087803b158015611e9a57600080fd5b505af1925050508015611ecb57506040513d601f19601f82011682018060405250810190611ec891906124d0565b60015b611f4e573d8060008114611efb576040519150601f19603f3d011682016040523d82523d6000602084013e611f00565b606091505b50600081511415611f46576040517f08c379a0000000000000000000000000000000000000000000000000000000008152600401611f3d906130a1565b60405180910390fd5b805181602001fd5b63150b7a0260e01b7bffffffffffffffffffffffffffffffffffffffffffffffffffffffff1916817bffffffffffffffffffffffffffffffffffffffffffffffffffffffff191614915050611fa3565b600190505b949350505050565b600073ffffffffffffffffffffffffffffffffffffffff168273ffffffffffffffffffffffffffffffffffffffff16141561201b576040517f08c379a0000000000000000000000000000000000000000000000000000000008152600401612012906131c1565b60405180910390fd5b612024816111aa565b15612064576040517f08c379a000000000000000000000000000000000000000000000000000000000815260040161205b906130c1565b60405180910390fd5b61207060008383611db4565b6001600360008473ffffffffffffffffffffffffffffffffffffffff1673ffffffffffffffffffffffffffffffffffffffff16815260200190815260200160002060008282546120c09190613375565b92505081905550816002600083815260200190815260200160002060006101000a81548173ffffffffffffffffffffffffffffffffffffffff021916908373ffffffffffffffffffffffffffffffffffffffff160217905550808273ffffffffffffffffffffffffffffffffffffffff16600073ffffffffffffffffffffffffffffffffffffffff167fddf252ad1be2c89b69c2b068fc378daa952ba7f163c4a11628f55a4df523b3ef60405160405180910390a45050565b600080823b905060008111915050919050565b82805461219890613540565b90600052602060002090601f0160209004810192826121ba5760008555612201565b82601f106121d357805160ff1916838001178555612201565b82800160010185558215612201579182015b828111156122005782518255916020019190600101906121e5565b5b50905061220e9190612212565b5090565b5b8082111561222b576000816000905550600101612213565b5090565b600061224261223d846132ed565b6132bc565b90508281526020810184848401111561225a57600080fd5b6122658482856134fe565b509392505050565b60008135905061227c816136b9565b92915050565b600081359050612291816136d0565b92915050565b6000813590506122a6816136e7565b92915050565b6000815190506122bb816136e7565b92915050565b600082601f8301126122d257600080fd5b81356122e284826020860161222f565b91505092915050565b6000813590506122fa816136fe565b92915050565b60006020828403121561231257600080fd5b60006123208482850161226d565b91505092915050565b6000806040838503121561233c57600080fd5b600061234a8582860161226d565b925050602061235b8582860161226d565b9150509250929050565b60008060006060848603121561237a57600080fd5b60006123888682870161226d565b93505060206123998682870161226d565b92505060406123aa868287016122eb565b9150509250925092565b600080600080608085870312156123ca57600080fd5b60006123d88782880161226d565b94505060206123e98782880161226d565b93505060406123fa878288016122eb565b925050606085013567ffffffffffffffff81111561241757600080fd5b612423878288016122c1565b91505092959194509250565b6000806040838503121561244257600080fd5b60006124508582860161226d565b925050602061246185828601612282565b9150509250929050565b6000806040838503121561247e57600080fd5b600061248c8582860161226d565b925050602061249d858286016122eb565b9150509250929050565b6000602082840312156124b957600080fd5b60006124c784828501612297565b91505092915050565b6000602082840312156124e257600080fd5b60006124f0848285016122ac565b91505092915050565b60006020828403121561250b57600080fd5b6000612519848285016122eb565b91505092915050565b61252b8161348a565b82525050565b61253a8161349c565b82525050565b600061254b82613332565b6125558185613348565b935061256581856020860161350d565b61256e816136a8565b840191505092915050565b60006125848261333d565b61258e8185613359565b935061259e81856020860161350d565b6125a7816136a8565b840191505092915050565b60006125bd8261333d565b6125c7818561336a565b93506125d781856020860161350d565b80840191505092915050565b600081546125f081613540565b6125fa818661336a565b94506001821660008114612615576001811461262657612659565b60ff19831686528186019350612659565b61262f8561331d565b60005b8381101561265157815481890152600182019150602081019050612632565b838801955050505b50505092915050565b600061266f60258361336a565b91507f68747470733a2f2f6e6674707265766965772e30786465762e636f6465732f3f60008301527f636f64653d0000000000000000000000000000000000000000000000000000006020830152602582019050919050565b60006126d5603283613359565b91507f4552433732313a207472616e7366657220746f206e6f6e20455243373231526560008301527f63656976657220696d706c656d656e74657200000000000000000000000000006020830152604082019050919050565b600061273b601c83613359565b91507f4552433732313a20746f6b656e20616c7265616479206d696e746564000000006000830152602082019050919050565b600061277b602483613359565b91507f4552433732313a207472616e7366657220746f20746865207a65726f2061646460008301527f72657373000000000000000000000000000000000000000000000000000000006020830152604082019050919050565b60006127e1601983613359565b91507f4552433732313a20617070726f766520746f2063616c6c6572000000000000006000830152602082019050919050565b600061282160638361336a565b91507f222c20226465736372697074696f6e223a20224120686967686c79206163636c60008301527f61696d656420636f6c6c656374696f6e206f6620737175617265732e222c202260208301527f696d616765223a2022646174613a696d6167652f7376672b786d6c3b6261736560408301527f36342c00000000000000000000000000000000000000000000000000000000006060830152606382019050919050565b60006128d3602c83613359565b91507f4552433732313a206f70657261746f7220717565727920666f72206e6f6e657860008301527f697374656e7420746f6b656e00000000000000000000000000000000000000006020830152604082019050919050565b6000612939603883613359565b91507f4552433732313a20617070726f76652063616c6c6572206973206e6f74206f7760008301527f6e6572206e6f7220617070726f76656420666f7220616c6c00000000000000006020830152604082019050919050565b600061299f602a83613359565b91507f4552433732313a2062616c616e636520717565727920666f7220746865207a6560008301527f726f2061646472657373000000000000000000000000000000000000000000006020830152604082019050919050565b6000612a05602983613359565b91507f4552433732313a206f776e657220717565727920666f72206e6f6e657869737460008301527f656e7420746f6b656e00000000000000000000000000000000000000000000006020830152604082019050919050565b6000612a6b602e83613359565b91507f45524337323155524953746f726167653a2055524920736574206f66206e6f6e60008301527f6578697374656e7420746f6b656e0000000000000000000000000000000000006020830152604082019050919050565b6000612ad160028361336a565b91507f227d0000000000000000000000000000000000000000000000000000000000006000830152600282019050919050565b6000612b11602083613359565b91507f4552433732313a206d696e7420746f20746865207a65726f20616464726573736000830152602082019050919050565b6000612b51603183613359565b91507f45524337323155524953746f726167653a2055524920717565727920666f722060008301527f6e6f6e6578697374656e7420746f6b656e0000000000000000000000000000006020830152604082019050919050565b6000612bb7602c83613359565b91507f4552433732313a20617070726f76656420717565727920666f72206e6f6e657860008301527f697374656e7420746f6b656e00000000000000000000000000000000000000006020830152604082019050919050565b6000612c1d602983613359565b91507f4552433732313a207472616e73666572206f6620746f6b656e2074686174206960008301527f73206e6f74206f776e00000000000000000000000000000000000000000000006020830152604082019050919050565b6000612c83602f83613359565b91507f4552433732314d657461646174613a2055524920717565727920666f72206e6f60008301527f6e6578697374656e7420746f6b656e00000000000000000000000000000000006020830152604082019050919050565b6000612ce9600a8361336a565b91507f7b226e616d65223a2022000000000000000000000000000000000000000000006000830152600a82019050919050565b6000612d29602183613359565b91507f4552433732313a20617070726f76616c20746f2063757272656e74206f776e6560008301527f72000000000000000000000000000000000000000000000000000000000000006020830152604082019050919050565b6000612d8f600a8361336a565b91507f46495253545f574f5244000000000000000000000000000000000000000000006000830152600a82019050919050565b6000612dcf601d8361336a565b91507f646174613a6170706c69636174696f6e2f6a736f6e3b6261736536342c0000006000830152601d82019050919050565b6000612e0f603183613359565b91507f4552433732313a207472616e736665722063616c6c6572206973206e6f74206f60008301527f776e6572206e6f7220617070726f7665640000000000000000000000000000006020830152604082019050919050565b612e71816134f4565b82525050565b6000612e8382846125b2565b915081905092915050565b6000612e9a82856125b2565b9150612ea682846125b2565b91508190509392505050565b6000612ebe82866125b2565b9150612eca82856125b2565b9150612ed682846125b2565b9150819050949350505050565b6000612eef82866125e3565b9150612efb82856125b2565b9150612f0782846125e3565b9150819050949350505050565b6000612f1f82612662565b9150612f2b82846125b2565b915081905092915050565b6000612f4182612cdc565b9150612f4d82856125b2565b9150612f5882612814565b9150612f6482846125b2565b9150612f6f82612ac4565b91508190509392505050565b6000612f8682612d82565b9150612f9282846125b2565b915081905092915050565b6000612fa882612dc2565b9150612fb482846125b2565b915081905092915050565b6000602082019050612fd46000830184612522565b92915050565b6000608082019050612fef6000830187612522565b612ffc6020830186612522565b6130096040830185612e68565b818103606083015261301b8184612540565b905095945050505050565b600060208201905061303b6000830184612531565b92915050565b6000602082019050818103600083015261305b8184612579565b905092915050565b6000606082019050818103600083015261307d8186612579565b905061308c6020830185612e68565b6130996040830184612522565b949350505050565b600060208201905081810360008301526130ba816126c8565b9050919050565b600060208201905081810360008301526130da8161272e565b9050919050565b600060208201905081810360008301526130fa8161276e565b9050919050565b6000602082019050818103600083015261311a816127d4565b9050919050565b6000602082019050818103600083015261313a816128c6565b9050919050565b6000602082019050818103600083015261315a8161292c565b9050919050565b6000602082019050818103600083015261317a81612992565b9050919050565b6000602082019050818103600083015261319a816129f8565b9050919050565b600060208201905081810360008301526131ba81612a5e565b9050919050565b600060208201905081810360008301526131da81612b04565b9050919050565b600060208201905081810360008301526131fa81612b44565b9050919050565b6000602082019050818103600083015261321a81612baa565b9050919050565b6000602082019050818103600083015261323a81612c10565b9050919050565b6000602082019050818103600083015261325a81612c76565b9050919050565b6000602082019050818103600083015261327a81612d1c565b9050919050565b6000602082019050818103600083015261329a81612e02565b9050919050565b60006020820190506132b66000830184612e68565b92915050565b6000604051905081810181811067ffffffffffffffff821117156132e3576132e2613679565b5b8060405250919050565b600067ffffffffffffffff82111561330857613307613679565b5b601f19601f8301169050602081019050919050565b60008190508160005260206000209050919050565b600081519050919050565b600081519050919050565b600082825260208201905092915050565b600082825260208201905092915050565b600081905092915050565b6000613380826134f4565b915061338b836134f4565b9250827fffffffffffffffffffffffffffffffffffffffffffffffffffffffffffffffff038211156133c0576133bf6135ec565b5b828201905092915050565b60006133d6826134f4565b91506133e1836134f4565b9250826133f1576133f061361b565b5b828204905092915050565b6000613407826134f4565b9150613412836134f4565b9250817fffffffffffffffffffffffffffffffffffffffffffffffffffffffffffffffff048311821515161561344b5761344a6135ec565b5b828202905092915050565b6000613461826134f4565b915061346c836134f4565b92508282101561347f5761347e6135ec565b5b828203905092915050565b6000613495826134d4565b9050919050565b60008115159050919050565b60007fffffffff0000000000000000000000000000000000000000000000000000000082169050919050565b600073ffffffffffffffffffffffffffffffffffffffff82169050919050565b6000819050919050565b82818337600083830152505050565b60005b8381101561352b578082015181840152602081019050613510565b8381111561353a576000848401525b50505050565b6000600282049050600182168061355857607f821691505b6020821081141561356c5761356b61364a565b5b50919050565b600061357d826134f4565b91507fffffffffffffffffffffffffffffffffffffffffffffffffffffffffffffffff8214156135b0576135af6135ec565b5b600182019050919050565b60006135c6826134f4565b91506135d1836134f4565b9250826135e1576135e061361b565b5b828206905092915050565b7f4e487b7100000000000000000000000000000000000000000000000000000000600052601160045260246000fd5b7f4e487b7100000000000000000000000000000000000000000000000000000000600052601260045260246000fd5b7f4e487b7100000000000000000000000000000000000000000000000000000000600052602260045260246000fd5b7f4e487b7100000000000000000000000000000000000000000000000000000000600052604160045260246000fd5b6000601f19601f8301169050919050565b6136c28161348a565b81146136cd57600080fd5b50565b6136d98161349c565b81146136e457600080fd5b50565b6136f0816134a8565b81146136fb57600080fd5b50565b613707816134f4565b811461371257600080fd5b5056fe4142434445464748494a4b4c4d4e4f505152535455565758595a6162636465666768696a6b6c6d6e6f707172737475767778797a303132333435363738392b2f416e204e465420772f20494420257320686173206265656e206d696e74656420666f72202573a2646970667358221220c8842d592b0922c4e9debde274ce3b56626d3aa61b491ba0eddd26055b9d8efe64736f6c634300080000333c73766720786d6c6e733d27687474703a2f2f7777772e77332e6f72672f323030302f73766727207072657365727665417370656374526174696f3d27784d696e594d696e206d656574272076696577426f783d273020302033353020333530273e3c7374796c653e2e62617365207b2066696c6c3a2077686974653b20666f6e742d66616d696c793a2073657269663b20666f6e742d73697a653a20323470783b207d3c2f7374796c653e3c726563742077696474683d273130302527206865696768743d2731303025272066696c6c3d27626c61636b27202f3e3c7465787420783d273530252720793d273530252720636c6173733d27626173652720646f6d696e616e742d626173656c696e653d276d6964646c652720746578742d616e63686f723d276d6964646c65273e",
  "linkReferences": {},
  "deployedLinkReferences": {}
}